:020000022000DC
:1070000000000420B5720200DD720200DF7202008F
:10701000E1720200E3720200E5720200000000006B
:10702000000000000000000000000000E772020005
:10703000E972020000000000EB720200ED72020033
:10704000E5A80200EF720200BDAF0200EF7202007D
:10705000EF720200EF72020001AD0200EF72020057
:10706000EF720200EF720200EF720200EF72020094
:10707000EF720200EF720200EF720200EF72020084
:10708000EF72020061860200EF720200EF720200EE
:10709000EF720200EF720200E9FD0200EF720200DF
:1070A000EF720200EF720200EF720200EF72020054
:1070B000EF720200EF72020000000000000000000A
:1070C000EF720200EF720200EF720200EF72020034
:1070D000EF720200EF720200EF720200EF72020024
:1070E000EF720200EF720200EF7202000000000077
:1070F00000000000EF72020000000000EF720200CA
:10710000000000000000000000000000000000007F
:10711000000000000000000000000000000000006F
:10712000000000000000000000000000000000005F
:10713000000000000000000000000000000000004F
:10714000000000000000000000000000000000003F
:10715000000000000000000000000000000000002F
:10716000000000000000000000000000000000001F
:10717000000000000000000000000000000000000F
:1071800000000000000000000000000000000000FF
:1071900000000000000000000000000000000000EF
:1071A00000000000000000000000000000000000DF
:1071B00000000000000000000000000000000000CF
:1071C00000000000000000000000000000000000BF
:1071D00000000000000000000000000000000000AF
:1071E000000000000000000000000000000000009F
:1071F000000000000000000000000000000000008F
:1072000010B5054C237833B9044B13B10448AFF3E0
:1072100000800123237010BD102300200000000017
:10722000DC1A030008B5034B1BB103490348AFF355
:10723000008008BD0000000014230020DC1A0300B9
:10724000154B002B08BF134B9D46A3F5803A002138
:107250008B460F461348144A121A08F091FF0F4B41
:10726000002B00D098470E4B002B00D098470020F1
:10727000002104000D000D48002802D00C48AFF397
:10728000008008F03FFF2000290003F08BFF08F08A
:1072900025FF00BF000008000000042000000000DF
:1072A0000000000010230020842D002000000000BA
:1072B000000000000649074A074B9B1A03DD043B08
:1072C000C858D050FBDC03F0D5F8FFF7B9FF000039
:1072D000341C03006022002010230020FEE7FEE79C
:1072E000FEE7FEE7FEE7FEE7FEE7FEE7FEE7FEE776
:1072F000F0B52F4C85B004F5836002F05FFB04F21B
:10730000144002F05BFBA368DAB2D01C04EB8001EE
:1073100014F8200010F0040041D09F1C0E7806F0F5
:107320000306012E3D4633D0022E02F1030621D082
:1073300004EB86010028F1D104EB82020133D2680C
:107340000192DBB204EB830302F00302012ADE6840
:1073500027D0022A21D1BDF806309B090333360C11
:1073600005EB9305134802F035FB00B1A5603046EC
:1073700005B0F0BD4B8807EB9313DAB2D11C9F1C0C
:1073800014F821003D4604EB810100F00400D1E730
:107390000B88C3F383133B44EFE70026E2E79D1C11
:1073A000CAE7BDF80430C3F38313360C1D44D9E794
:1073B000FC230020102800202DE9F04182B002AB10
:1073C000002203F8012D324C07461846884600F08B
:1073D000B7FFD4E9015303F580735B1B012B54D82D
:1073E00004F21C460121304602F0D0FAFFF780FF7C
:1073F0000146304602F0CAFAD4E9012303F580734E
:107400009B1A012BEED9D3B20333023205219DF82A
:10741000070044F82310626000F0B8FF00211D4807
:1074200002F07AFA80F310006B1CDBB204EB8303EA
:107430000004EDB2033540EA1740D86014F8253057
:1074400067F3C50304F8253034F825306FF389134A
:1074500024F8253054F8252068F39F221346012193
:1074600061F301036FF3820344F8252004F825300B
:1074700023781BB906E000F00FF818B1D4E9013207
:107480009A42F8D102B0BDE8F0812A46BBE700BFBE
:10749000FC230020182800202DE9F0438A4C00230B
:1074A00085B0C4F81834BFF34F8FA568EAB2D31C77
:1074B00004EB830114F82330580718D566680B785D
:1074C00003F00303012B42D0022B03D14B8802357A
:1074D00005EB9315EAB2D4F81804D31C04EB83012E
:1074E00028B9AE4239D914F823305B07E7D404EB4E
:1074F00082026B1CD2680192DBB204EB830302F0C0
:107500000302DB680293022A05F1020600F08C8078
:10751000012A26D0D4F810543DB12B6828469B6828
:107520009847EB681D68002DF7D16848684B69499A
:10753000C01AC008000440F00200FFF73DFFD4E984
:107540000130C01A18BF012005B0BDE8F0830B88D8
:107550000235C3F383131D44BCE7A66005B0BDE844
:10756000F083BDF804205C48C2F38313062B28BFC8
:10757000062363F3891202339900ADF8042002F068
:107580005FFE07460028C5D002F09CFE00230822BB
:1075900001A9384602F0BCFEBDF8043013F4707F38
:1075A00000F08F806FF00109A9EB05090825F1B201
:1075B00003312B46042204EB8101384602F0A8FE79
:1075C000BDF8043006F1010809EB0802C3F3831388
:1075D0009342464605F10405E9D8D4F81834002B47
:1075E00065D1D4F8105465B1EB685A79284639460C
:1075F000002A58D02B681B689847EB681D68002D3F
:10760000F2D1384602F062FE04A8002300F80D3DD6
:1076100000F096FED4F818340BB9C4F808809DF831
:10762000030000F0B3FE8AE7BDF806302A484FEAAF
:1076300093194D46502D28BF502565F38F1305F142
:107640000801ADF8063002F0FBFD074600283FF4C4
:1076500061AF6FEA06085FFA88F802F033FE08F1BE
:10766000010801A900230822384602F051FE4FEA22
:107670008808F1B20331454504EB81011BD9A5EB24
:107680000805082342463846EDB202F041FE2A467C
:1076900008F108031149384602F03AFE09F10308DF
:1076A00006EB980899E71D68002D9DD1A9E738469B
:1076B00002F00CFE43E72A460823384602F028FE73
:1076C000ECE7B04689E700BFFC2300208C1B0300D9
:1076D000641B0300BC010300501B030008240020AE
:1076E0002DE9F04383B002AB002403F8014D354C83
:1076F000074618468846914600F022FED4E9015319
:1077000003F580735B1B022B5AD804F21C4601213F
:10771000304602F03BF9FFF7EBFD0146304602F040
:1077200035F9D4E9012303F580739B1A022BEED9B6
:10773000D3B203334521033244F823109DF80700E8
:10774000626000F023FEAB1CDBB204EB830300217C
:107750001D48C3F80C9002F0DFF880F310006B1C9A
:10776000DBB204EB83030004EDB2033540EA1740BB
:10777000D86014F8253067F3C50304F8253034F8D1
:107780002530012161F3891324F8253054F8252090
:1077900068F39F22134661F301036FF3820344F8F9
:1077A000252004F8253023781BB906E0FFF774FE86
:1077B00018B1D4E901329A42F8D103B0BDE8F083A0
:1077C0002A46B5E7FC230020182800202DE9F047C1
:1077D00082B002AD002405F8014D394C0746284619
:1077E00099468846924600F0ABFDD4E9015303F573
:1077F00080735B1B032B61D804F21C4601213046C9
:1078000002F0C4F8FFF774FD0146304602F0BEF8FE
:10781000D4E9012303F580739B1A032BEED9D3B26D
:107820000333852144F8231004329DF80700626079
:1078300000F0ACFDAA1CEB1CD2B2DBB204EB82025E
:1078400004EB830300211F48C2F80CA0C3F80C907E
:1078500002F062F880F310006B1CDBB204EB8303D0
:107860000004EDB2033540EA1740D86014F8253023
:1078700067F3C50304F8253034F82530022262F39B
:10788000891324F8253054F8252068F39F221346E5
:10789000012161F301036FF3820344F8252004F80A
:1078A000253023781BB906E0FFF7F6FD18B1D4E9BF
:1078B00001329A42F8D102B0BDE8F0872A46AEE71D
:1078C000FC230020182800202DE9F04B82B002ADE7
:1078D000002405F8014D3C4C804628461F46894649
:1078E000934600F02DFDD4E9015303F580735B1B33
:1078F000042B66D804F21C460121304602F046F8FB
:10790000FFF7F6FC0146304602F040F8D4E90123C7
:1079100003F580739B1A042BEED9D3B20333C52130
:1079200044F8231005329DF80700626000F02EFD38
:10793000A81CEA1C2B1DC0B2D2B204EB800004EBE1
:107940008202DBB204EB8303C0F80CB00021D760E5
:107950001E480A9ADA6001F0DFFF80F310006B1C0A
:10796000DBB204EB83030004EDB2033540EA1840B8
:10797000D86014F8253068F3C50304F8253034F8CE
:107980002530032262F3891324F8253054F825208A
:1079900069F39F221346012161F301036FF3820310
:1079A00044F8252004F8253023781BB906E0FFF7BA
:1079B00073FD18B1D4E901329A42F8D102B0BDE8A2
:1079C000F08B2A46A9E700BFFC23002018280020DE
:1079D000044BD3E901239A4201D0FFF75DBD00209B
:1079E000704700BFFC23002038B5084BD3F8104483
:1079F00001251D704CB1E3685D71236820465B680A
:107A00009847E3681C68002CF5D138BDFC230020A2
:107A100070B51A4B1D789DB1194B1C682378C0B204
:107A2000984210D004F10802002306E014F8331045
:107A30008142164602F1080206D001339D42F5D17B
:107A400000231B78FFDE264603F04AF97378A3F182
:107A50000103B3FA83F35B09834200D070BD094B85
:107A6000D3E900231343F9D1074B084819680022D2
:107A70004908BDE8704000F0F1BB00BF1C280020A1
:107A800070280020482800202028002028280020D6
:107A90002DE9F04F9D4E337887B0002B00F03081F8
:107AA0009B4F9C4DDFF8788200244FF00109D7F8F6
:107AB00000B01BF8340003F013F90BEBC4031BF800
:107AC00034B05B784FEA5B0C1BF0010E15F80C101C
:107AD000A3F10103B3FA83F314BF0A0901F00F0203
:107AE0005B09042A00F2D080DFE812F09800D00091
:107AF000690048000500834200F0E980BEF1000FF4
:107B00000CBFF0230F233078194005F80C10A8B1F2
:107B1000D7F800C09CF800305B4500F0E7800CF11E
:107B20000802002304E01CF83310594500F0DF8000
:107B300001338342964602F10802F4D14FF000036C
:107B40000DF117008DF817300023039300F0F8FBB8
:107B5000ABF12002CBF1200329FA03F309FA02F278
:107B60001A4309FA0BF103920291D8E90023DDE9E7
:107B7000020122EA000023EA01017DE0834232781B
:107B80000CD0BEF1000F0CBFF0230F2303EA01035A
:107B90000CBF04214021194305F80C100134944214
:107BA00085DBD8E90023134306D05B4B5B4819689B
:107BB0000022490800F052FB07B0BDE8F08F834275
:107BC00076D1BEF1000F14BF0F23F02303EA0103A7
:107BD000327814BF30210321194305F80C10002A14
:107BE000DFD0D7F800C09CF800305B4500F08B80F8
:107BF0000CF108010023013393428E4601F1080184
:107C0000CCD01CF833005845F5D1DEF80430002BF9
:107C1000C4D05846012198473278BFE7834233D118
:107C2000BEF1000F0CBFF0230F2303EA01030CBFCA
:107C30000121102119434FF000030DF117008DF8B9
:107C400017300023019305F80C1000F079FBABF11D
:107C5000200309FA03F301930198CBF1200129FADB
:107C600001F1084309FA0BF101900091D8E90023D2
:107C7000DDE900011043194302460B469DF8170049
:107C8000C8E9002300F082FB327887E7834213BF04
:107C90000023202302221A46BEF1000F12BF0F203C
:107CA000F020134601400B4305F80C30327875E79D
:107CB000BEF1000F0CBFF0230F2303EA01030CBF3A
:107CC00001211021194305F80C10327866E7BEF146
:107CD000000F14BF0F23F02303EA010314BF302168
:107CE0000321194305F80C10327857E7E646DEF811
:107CF0000430002B3FF422AF0021584698471DE77F
:107D0000DFF81C804DE7E6467FE700BF1C28002017
:107D1000702800205028002020280020282800203B
:107D200048280020092A40D9F0B583B00E46054600
:107D3000144602F05FFE002831D0204A2049214B32
:107D400015600E70202200211F481C6008F018FAF0
:107D50001E4B00200021741EC3E90001E4B236B3BB
:107D600005EBC4041A4E083D032701E0A5421ED0CE
:107D70009DF8063020788DF8047003F0FC036FF353
:107D800082038DF80630A3788DF80530324601A9BC
:107D900002F03AFE083C0028E8D003B0F0BD02F043
:107DA000D3FD0028C9D003B0F0BD07207047094AB1
:107DB0000948002100F044FA03B0F0BD702800200B
:107DC0001C280020202800205028002048280020BF
:107DD000117A0200917A0200D401030070B5084DB7
:107DE0002B785BB1074E00243368012113F834006F
:107DF00002F0FAFE2B780134A342F5D8002070BDC2
:107E00001C2800207028002000B585B000230390B6
:107E1000194601AA44F20100CDE9013300F004F84B
:107E200005B05DF804FB00BF10B572B6FFF7DCFDCE
:107E3000FFF7CEFD0028FBD1104B114C1149E41A7D
:107E4000E408240444F00100FFF7B6FA0E4B1B6867
:107E5000DB0700D500BE44F002000C49FFF7ACFA86
:107E6000BFF34F8F0A490B4BCA6802F4E062134319
:107E7000CB60BFF34F8F00BFFDE700BF641B030063
:107E80008C1B0300E4010300F0ED00E0F0010300AF
:107E900000ED00E00400FA05D0E90223D1E9020177
:107EA000994208BF90422CBF01200020704700BFBC
:107EB0002DE9F04F87B0039000F08EFB40B19B4955
:107EC000D1E9002312F1807443F10005C1E90045B6
:107ED00000210398964C00F09BFB60B1236853B1DE
:107EE000944B25681B7823B11DB12B7F002B40F0EC
:107EF0002D81002323600121039800F089FB0028D5
:107F000040F0F38005A98C4801F05AFC18B38B4E61
:107F1000884F894D0378012B00F0C680C0F0CC80DB
:107F2000022B0ED130464FF0000802F04FFA30B16C
:107F300080F81C80304602F049FA0028F8D101236D
:107F40003B7005A9284601F069FC05A9284601F007
:107F500037FC0028DED1794E794FDFF8D09103E06D
:107F60000D2855D000232360304602F035FA2368EF
:107F7000002800F0B48063B12368D0E90201D3E99E
:107F80000223994208BF90423BD223681B7F002BFB
:107F90007FD1304602F01AFA0546D5E90223384669
:107FA000CDE9002300F046FBD9E90023DFF89481F6
:107FB00012EB000A43F1000BD8E900239B4508BFF0
:107FC000924503D21AF1807A4BF1000BDDE90001F2
:107FD000B0EB0A0061EB0B01012871F1000313DB28
:107FE000DFF864A1504559D8AA684FF496030021E0
:107FF000384600F06BFA0028B2D12368002B67D016
:10800000256007B0BDE8F08F0021384600F0F4FA93
:10801000484B1B78002BA5D02B7F002BA2D03846D5
:1080200000F008FBD8E90023D9E900ABCDE9002333
:108030001AEB00024BF1000310461946DDE900235C
:10804000994208BF904203D210F1807041F10001C3
:10805000D5E90223994208BF904261D32B6903B945
:108060002B77D5E905309847296900293FF47AAF85
:108070002B7F002B3FF476AFD5E9022312EB010AE8
:1080800043F1000BC5E902AB2946304602F08AF9FC
:1080900068E72168304602F085F97AE7384600F053
:1080A000C9FA00EB0A02A0E741682368994213D09D
:1080B000304602F095F944E743681A7F002A7FF4BE
:1080C00040AF01221A774168304602F06BF938E779
:1080D000039800F0CDF993E70023236031E7002BEC
:1080E0008FD1039800F0C8F98BE71548DFF854806A
:1080F00000F0A0FA0D4BD3E90067D8E9002316EB96
:10810000000947F1000A9A4508BF91454846514683
:1081100003D219F180704AF10001C8E90001F1E6CB
:108120002946304602F03EF91CE700BF78280020BF
:10813000F828002080280020DC280020040203000A
:1081400060220020F0280020FFFFB4001D4800F04E
:1081500071FA1D4A1D4BD2E90067D3E9002316EBE3
:10816000000847F10009994508BF90454046494637
:1081700003D218F1807049F10001D5E90223994238
:1081800008BF904219D32B6903B92B77D5E9053085
:108190009847296900293FF4ACAE2B7F002B3FF4B0
:1081A000A8AED5E90223561843F10007C5E90267D6
:1081B0002946074802F0F6F89BE62946044802F0F3
:1081C000F1F896E66022002078280020F0280020B0
:1081D0000402030010B5134B13491B68134882B007
:1081E00058220193082301F097FA044610B1204663
:1081F00002B010BD0E4A0F4801A900F0DFF8044696
:108200000028F4D101210B4800F0DCF901231946C4
:10821000094A084800F034F9084B012220461A7038
:1082200002B010BD0002030084280020DC280020DA
:10823000B17E020060220020FFFF7F008028002026
:108240004AB1A1F101010368B1FA81F14909C3E919
:108250000412002070470720704700BF037F0BB156
:10826000002070472DE9F048826182B004461F4823
:108270000D4600F0DFF91E4B1E49D3E90023D1E97A
:10828000006712EB000B43F1000CBC4508BFB3457F
:1082900003D21BF1807B4CF1000C1BEB0502216922
:1082A0004CF10003C4E9022379B901A9124801F095
:1082B0004BFA88B100254460057001A90E4801F011
:1082C0006FFA68B902B0BDE8F088256101A90A48D3
:1082D00001F03AFA0028EDD1042002B0BDE8F088A0
:1082E000024800F0ABF92846ECE700BF602200200E
:1082F00078280020F0280020DC28002030B5002558
:1083000083B00446057701A90B4801F01DFA78B146
:1083100001234460037001A9074801F041FA08B93C
:1083200003B030BD054800F089F9284603B030BDE0
:10833000042003B030BD00BFDC28002060220020F4
:1083400070B4EFF3108472B60D4B9A68AAB90D4958
:108350000D4E01259D60D1F8805035401D60C1F85B
:108360008060D1F884505D604FF0FF33C1F88430F5
:10837000027004B962B670BC704701230370F8E75D
:10838000702D002000E100E0FC06FFBD094B9A685B
:108390007AB170B910B4EFF3108172B6064A1C6856
:1083A00014605C685460986001B962B65DF8044B73
:1083B00070477047702D002000E100E0F8B5244EB2
:1083C0004579244C244B254F9B1B04EBC506DB0849
:1083D000367947F825201B0496BB02680D88C2F841
:1083E000085590F904208978002A21DB02F16042C7
:1083F00002F561424901C9B282F8001390F90420E4
:10840000002A07DB164D02F01F0601215209B14078
:1084100045F822104279134944F8320004EBC204B3
:1084200043F0030001232371FEF7C6FF0020F8BDCF
:108430000D4D02F00F0249011544C9B22976DDE75E
:1084400043F002000949FEF7B7FF0820F8BD00BF5E
:10845000641B0300FC2800209C1B0300042900204F
:1084600000E100E04C020300FCEC00E02802030005
:10847000036801221A607047036801225A6070473E
:10848000F0B404684FF480358D40C4F80853066892
:108490008C00C6F8485304F5A0740668A4B20027FF
:1084A000375182B036590468019601F5A87122F05F
:1084B0007F42019E44F821200268C2F8445313B160
:1084C0000368C3F8045302B0F0BC70472DE9F047CD
:1084D00088464FF48037016807FA08F7C1F84873F7
:1084E0000168C1F80873064600684FEA880401195C
:1084F000D0F80455D1F84005C1F8405504F5A074F2
:10850000A4B231684FF0000941F8049082B0401BDA
:108510000959009120F07F4001289A4622F07F45BA
:10852000009B0BD1264B4FF4806043F0010398472A
:10853000336843F804901B590193019B3368D3F8C7
:108540000445C3F844732B1B23F07F43012B08F52C
:10855000A87817D130681A4B013540F8285043F0FD
:1085600001034FF4806098473268D2F804359C428A
:1085700022D1C2F8447333680020C3F8047302B0F8
:10858000BDE8F087336843F828503268D2F8041504
:108590006B1ACAF1FF1A013B0AF57F4A23F07F43A9
:1085A0009A4509D3002BE4D1013542F828503268AE
:1085B000D2F804359942DCD00D2002B0BDE8F08736
:1085C0002002030002680223C2F8443311B102689A
:1085D000C2F80433704700BF0368D3F8040150B1F8
:1085E000002282B0C3F80421D3F804310193019B27
:1085F000012002B0704770474FF48033026803FADD
:1086000001F1C2F848130368C3F80813704700BFAC
:10861000890001F5A07189B20368585840B1002261
:108620005A5082B05B580193019B012002B0704701
:10863000704700BF0368D3F80405704790F9043011
:10864000002B09DB5A09403203F01F0301210348C4
:1086500001FA03F340F82230704700BF00E100E068
:10866000024A034B10681B68184700BFFC28002013
:1086700004290020F0B5344D344EB5F802C06A68C4
:108680004FEA8C0707EB0C0306EB830383B05968B2
:1086900001F58054002A53D05388033302EB830240
:1086A000944231D9136801332ED05388033302EB3F
:1086B0008303A34228D84FF6FF7E9088704517D0D9
:1086C0001088A8B19068013012D06A605388204C9D
:1086D0002048A6882168033300249BB200949B00A5
:1086E00001EB860103242C7001F0C4F903B0F0BD46
:1086F0009C4209D91A6801321A4605D058880330BD
:1087000003EB80039C42D8D2674406EB8706F368EC
:108710006BB10F4B0F48196802229A800524002381
:1087200001222C7003B0BDE8F04001F041BA0948C5
:10873000042401222C7003B0BDE8F04001F038BAE7
:1087400001F10802ACE700BF2C29002048290020D5
:1087500084290020F8220020F0B443681BB1394A74
:10876000D468A34249D20023374F0B807A684FF078
:10877000010C02F580554FF6FF76083295420ED86F
:10878000BCF1020FA1F800C007F1140757D07A68B6
:1087900002F58055083295424FF0020CF0D913686B
:1087A0000133EDD05388033302EB83039D42E7D3BB
:1087B0009488B4420DD014885CB19468B4F1FF3F42
:1087C00007D00368A34211D05388033302EB83021E
:1087D000D4E79D42D4D91A6801321A46D0D05C88B9
:1087E000033403EB84039D42E2D2C9E7174B426096
:1087F0001B8903810120F0BC704712699342B2D8F3
:1088000013F00305AFD1114A048912899442AAD109
:1088100004689A689442A6D10B484268934203D9EF
:1088200002F58052934207D38269934207D902F539
:108830008052934203D201250D800120DBE7002006
:10884000F0BC7047F8220020482900202C29002085
:108850002DE9F04F9F4F8BB004464FF6FF783E68EE
:10886000002E00F0C2803278531E052B00F2B68035
:10887000DFE803F0593B3B1E1E03002C40F0BC8098
:10888000DFF874C29CF80C209CF80030002A00F03D
:108890005981013B8CF80C40062B00F29F80DFE8E9
:1088A00013F0AF03BC02B801DB019D00CE02BF0292
:1088B000002C40F0A1803379012B00F07781C0F0CB
:1088C0004E8105AD022B0594C5E902442C6100F0F0
:1088D0009C8048F20E6006903378023B042B33D81C
:1088E000DFE803F058684C2C6400B6F81490B17DB2
:1088F000002C40F007814FEA8904774D04EB09030F
:1089000005EB8303B3F808A05B6803EB8A0A06292A
:1089100000F21E83DFE811F04002B801D801EB013C
:10892000FF011A023302002C40F0C8803379032B78
:1089300000F28E80DFE803F0B6A2976B04238DF877
:108940001430F388ADF82030644C04F1100654F86C
:10895000043B284603B19847A642F8D160496148D4
:1089600000243C6000F05AFF01215F4801F01AF832
:1089700000287FF474AF0BB0BDE8F08F03238DF8AF
:108980001430F388ADF820303389ADF82230F36825
:108990000793D9E701238DF814303389ADF82030DF
:1089A000B388ADF82230F3680793CDE705238DF83F
:1089B0001430C9E702238DF814303389ADF8203024
:1089C000B388ADF82230F3680793B37DA3F10603B3
:1089D000B3FA83F35B098DF82430B5E705AD0023C6
:1089E000AB600593C5E9033373E73D493D4800F0AB
:1089F000E7FE0646386036E705AD0023AB60059319
:108A0000C5E903334FF4064065E7204663E7374C7A
:108A1000374A21683748304D4FF0000986F80490F6
:108A20000823CDF8009001F025F8334B26685B88C9
:108A3000A18803EB830305EB830205F823905368B9
:108A40002360022356601181A380002893D03E68E2
:108A50002A4A05AD002353600593C5E902332B6113
:108A600048F20D6037E7214A2248116800230224AA
:108A700033719480012201F09BF8E6E7164D2B78C4
:108A8000022B00F0DC822B7D022B00F0BC821B4B02
:108A900005AD002001221A7005905860C5E902005A
:108AA000286118E7114B164A1968124801233371DF
:108AB00000230093082300F0DDFFC6E705AD0F4A51
:108AC000002353600593C5E902332B614FF4064040
:108AD00001E700BF44290020482900201429002074
:108AE0003C290020702900208029002084290020B2
:108AF00064020300F82200202C29002024290020F1
:108B00006C0203000229F2887FD94FEA8904B54D2F
:108B100004EB090105EB8101D31C0A8913440B8185
:108B2000F28804EB090105EB810105AD4B89033B9C
:108B30009B1A00224B81AA600592C5E903224FF4DB
:108B40000640C8E6072B00F2EE81DFE813F0B5011E
:108B5000EC01EC015B01A001690169018B010223B9
:108B60003371CDE9064405ADF368059328460DF150
:108B70001201FFF7F1FD002800F02A8106999A4AB8
:108B80008B88F3800B883381984800940423BDF8C8
:108B9000124000F06FFF002840F04582914B04EB3B
:108BA000840403EB840401232374E4E6904B1B78D4
:108BB000002B00F0FF80DFF83CE2BEF80490B9F132
:108BC000010F15D8874D039409EB890205EB82024A
:108BD000043212F8043C002B00F0BE8109F10103BD
:108BE00099B201299946AEF8043002F11402F0D985
:108BF00005AD082200217F4807F0C2FA0020A860D6
:108C00000590C5E903003E6865E6764D4FEA8904A4
:108C100087E77948DCF80420848801685388734822
:108C2000033301EB8401002400949BB203249B00D6
:108C30008CF8004000F01EFF00283FF49CAE05AD0C
:108C4000002341F61D523E68AB600593C5E903332E
:108C5000904208BF18463EE6BCF80230614D03EB77
:108C6000830305EB8305EB68002B00F0BE81624BAC
:108C70005E48196802229A8005228CF800200023A1
:108C8000012200F095FFD7E7032A0CBF0523062336
:108C90000022B3750AF104010092042306F10802D0
:108CA000524800F0E7FE00283FF465AEB37DF2883D
:108CB000022B48F20D6065D8A14405EB89056B894C
:108CC000033B9B1A6B81BAE733694848002B14BFFA
:108CD000032301230022B3750AF108010092042343
:108CE00006F10C0200F0C6FE0028DFD143E6F3884F
:108CF00032693E484FF0010C86F816C04FF0000C68
:108D00000AF10C019B00CDF800C000F0B3FE002872
:108D10003FF431AECAE7394BB26939491A604FF0B6
:108D2000000B1846C3F804B0FFF716FD002800F04A
:108D30007E810223B37504235146CDF800B0F218AA
:108D40002A4800F097FE0028B0D114E62C4B2B4A9D
:108D5000B3F800A051682548234A00234FF0060CC1
:108D600086F816C00093042300F084FE00289DD1ED
:108D70000AEB8A0A05EB8A0501232B74FBE5F288CE
:108D800041F61D5004EB090105EB8101D31C0A8952
:108D900013440B81F2888FE702230022B37504236A
:108DA00000925146F218114800F064FE00283FF48A
:108DB000E2AD7BE705AD082221460E4807F0E0F959
:108DC0000594C5E902442C613E6848F2016082E5E1
:108DD00048F209600023C5E90033C5E902332B617D
:108DE00079E500BF4829002060020300F822002036
:108DF000242900209029002084290020082900200F
:108E00008C290020914ADCF80410938849880333A8
:108E10000B44022193808CF80010FFF72BFC0BE72A
:108E20008A4B8B4A19688B4800230093CCF8043096
:108E300007238CF80030082300F01CFEFCE6BCF889
:108E40000220854D9300134405EB83050620002383
:108E50006968824A00938CF8000008237D4800F07E
:108E600009FEE9E601238CF800309CF80A30002B5B
:108E70003DD0794DEB6800228CF80A20002B36D1CA
:108E80002A7CA2B3ACF80230FFF7F4FBD4E6BCF8BE
:108E90000220714D6D4C9300991805EB81012668F5
:108EA0004868B4F804E04E60206000260220A1F873
:108EB00008E00E74A080C6E7674DBCF808102A7D54
:108EC0002B78B2FA82F252090131B3FA83F35B09CB
:108ED0008CF80B20ACF80810002201218CF80A3025
:108EE000ACF802208CF80C208CF80010BFE79CF83E
:108EF0000B3053B1584D2B6A00228CF80B2023B94C
:108F000095F824300BB10123BCE705AD0020A86023
:108F10008CF80000ACF80200CCF804000590C5E91C
:108F200003003E68D7E4013B062B3FF657AD01A294
:108F300052F823F0019002001B8E0200138C0200F5
:108F4000598C0200DD8902003F8E0200218E020052
:108F5000F28848F20E6015E71368DEF8001003F59A
:108F6000805C03F1080A002948D04B88033301EBE9
:108F700083018C4503D8039BCEF800302EE60B68A6
:108F80000133F8D04B88033301EB83039C45F2D3C4
:108F9000888840451CD0B1F800B0BBF1000F17D055
:108FA0008C68013414D0F388CEF800108342DAD1F3
:108FB000002300932A4A2748042300F05BFD002881
:108FC0003FD109EB890905EB890501232B74D2E414
:108FD0009C45D0D9196801311946CCD05888033046
:108FE00003EB80039C45D3D2C5E704228CF8002014
:108FF00069681848012200F0DBFD1DE65146B8E71C
:109000009CF80A3033E701239A001A4405EB8203E7
:10901000002059680090082305F822000F4A0D48E7
:1090200000F028FD11E53E6848F20D60D2E605AD7E
:109030000590C5E90200286148F209604BE400236D
:10904000E2E73E6848F20D6005ADC3E684290020E2
:109050006C020300F822002048290020640203006B
:10906000600203004068FFF7F3BB00BF10B309B311
:1090700070B582B00C460DF106010546FFF76CFB9A
:10908000A0B1BDF806000D4B6E6800EB800003EB4D
:10909000800001210C3000F079FC26606B68012211
:1090A0000C3300206360AA7202B070BD48F2096000
:1090B00002B070BD48F20460704700BF482900202C
:1090C000F0B110B582B00DF106010446FFF744FB84
:1090D00090B1BDF806300E4A03EB830302EB830325
:1090E000DA6882B1A27A72B1DA680021013A0846E0
:1090F000DA60A17202B010BD48F2096002B010BD82
:1091000048F20460704748F2056002B010BD00BF2D
:10911000482900204C4B1B78002B34D0002938D034
:109120000A884FF6FF739A422AD04B8843B34B68A4
:109130009B0731D12DE9F043B1F8088008F1030312
:109140009BB240F2FE32934283B01FD83F4A177859
:109150003FB95689148934441C44A4B2B4F5806FD5
:109160001DD9147D3CB9D68B948B34441C44A4B2D5
:10917000B4F5806F64D948F2066003B0BDE8F083AF
:1091800048F20360704748F20160704748F2086097
:10919000F3E748F20460704748F202607047BC464B
:1091A0004FEA8C09E14402EB890933440C46054639
:1091B00001A92748A9F80A3000F0C6FA1C22064681
:1091C000002106F0DDFF5EB302234FF00009B782F5
:1091D000337086F816906368336101211D4800F0F2
:1091E000D5FBF060238833816388B38001A9A6F89A
:1091F0000A90A6F80680164800F0D2FA45B1C5F8E4
:109200000490F268144B2A601B8985F80A902B8120
:109210000121124800F0AEFB044668B10020ACE723
:10922000B9F80A30C8F57F4808F1FD089844A9F854
:109230000A8048F20760A0E7FFF70AFB20469CE798
:109240000127BC46ACE700BF2429002048290020A4
:1092500070290020402900202C290020802900208E
:10926000002839D04C4B1B78002B32D0002933D04A
:109270000A884FF6FF739A4234D04B88002B31D0C6
:109280004B689B072BD12DE9F043B1F8089009F109
:1092900003039BB240F2FE32934283B025D83F4A8B
:1092A00015783DB9578914893C441C44A4B2B4F5DF
:1092B000806F1DD9147D3CB9D78B948B3C441C44E2
:1092C000A4B2B4F5806F62D948F2066003B0BDE87D
:1092D000F08348F20160704748F20460704748F23A
:1092E0000260704748F20360704748F20860EDE79B
:1092F000A846AC464FEA8C05654402EB85053B4425
:1093000006460C4626486B8101A900F01DFA1C2276
:109310000746002106F034FF57B300250323A7F8C2
:1093200014803B70BD7563683B6101211D4800F0EE
:109330002DFBF86023883B816388BB800423A7F85A
:109340000690BB753368BB6101A97D81144800F0AC
:1093500027FA7560FA68144B32601B89B572338145
:109360000121124800F006FB044660B12846ADE733
:109370006B89C9F57F4909F1FD099944A5F80A905F
:1093800048F20760A2E7FFF763FA20469EE74FF036
:109390000108C446AEE700BF242900204829002068
:1093A00070290020402900202C290020802900203D
:1093B0001A4B1B782BB34FF6FF7398421ED070B533
:1093C00082B001A90446164800F0BEF91C220546E9
:1093D000002106F0D5FEBDB105230126EC8001A9D0
:1093E0002B702E710E4800F0DBF931460D4800F06D
:1093F000C1FA044660B1002002B070BD48F20360BB
:10940000704748F20160704748F2076002B070BDD3
:10941000FFF71EFA204602B070BD00BF24290020CD
:1094200070290020802900202DE9F0473A4C24784B
:10943000002C6AD06AB363B3B3F804C0BCF1010F67
:1094400067D8364F0CEB8C040CF1010C8A4607EB05
:1094500084071FFA8CFC4FF6FF7E4FF000083C7823
:109460006CB91C687D6805F58056002C4AD065886B
:10947000033504EB8504A6420FD8C3F80080BCF185
:10948000020FA3F804C007F1140742D04FF0020CFA
:10949000E5E748F20460BDE8F08725680135ECD0C7
:1094A0006588033504EB8505AE42E6D3B4F8049035
:1094B000F14518D0B4F80090B9F1000F13D0A168AD
:1094C000013110D01C60A5888542CBD12588554537
:1094D000C8D1A16811601968114B51601B891381B3
:1094E0000020BDE8F087AE42C7D92C6801342C4675
:1094F000C3D0B5F8029009F1030905EB8905AE4226
:10950000D4D2BAE705F10804B5E748F20160BDE836
:10951000F08748F20960BEE724290020482900208E
:109520002C290020384B1B78002B64D071B36AB310
:109530002DE9F0439688012E63D8344F06EB86035D
:1095400007EB830701363B781FFA86F94FF6FF7C5D
:109550004FF0000E5BB1B9F1020FA2F8049007F1D1
:1095600014074ED03B784FF00209002BF3D113685B
:109570007C6804F58055002B40D05C88033403EBF5
:1095800084039D4205D8C2F800E0E4E748F2046095
:1095900070471C680134F6D05C88033403EB840404
:1095A000A542F0D3B3F80480E04515D0B3F80080AD
:1095B000B8F1000F10D09E6801360DD013601C88E2
:1095C0008442D5D19B680B601268114B4A601B899D
:1095D0000B810020BDE8F083A542D4D92368013374
:1095E0002346D0D0B4F8028008F1030804EB8804C5
:1095F000A542D7D2C7E748F20160704704F10803DB
:10960000BFE748F20960E5E7242900204829002047
:109610002C290020384B1B78002B64D071B36AB31F
:109620002DE9F0439688012E63D8344F06EB86036C
:1096300007EB830701363B781FFA86F94FF6FF7C6C
:109640004FF0000E5BB1B9F1020FA2F8049007F1E0
:1096500014074ED03B784FF00209002BF3D113686A
:109660007C6804F58055002B40D05C88033403EB04
:1096700084039D4205D8C2F800E0E4E748F20460A4
:1096800070471C680134F6D05C88033403EB840413
:10969000A542F0D3B3F80480E04515D0B3F80080BC
:1096A000B8F1000F10D09E6801360DD013609C8871
:1096B0008442D5D19B680B601268114B4A601B89AC
:1096C0000B810020BDE8F083A542D4D92368013383
:1096D0002346D0D0B4F8028008F1030804EB8804D4
:1096E000A542D7D2C7E748F20160704704F10803EA
:1096F000BFE748F20960E5E7242900204829002057
:109700002C29002020B119B103680B60002070479C
:1097100048F20460704700BF99B110B4B2FBF3F493
:1097200003FB1424A4B244B9C0E90014846082810C
:10973000C38120465DF8044B704709205DF8044B57
:1097400070470E20704700BF30B482B050E8013F30
:109750009DB2C48925448489A54228BF2D1B048954
:10976000A54202BFBFF32F8F002207E0C5EA030521
:1097700040E80154002CE9D14FF001028DF803209C
:109780000193019B9DF803200B602AB10B880068B0
:10979000184402B030BC704702F0FF031846F8E7E7
:1097A0000A884B889A4201D00020704750E8012F68
:1097B000C2EA024240E80123002BF7D101207047A2
:1097C00030B482B050E8023F1FFAA3F5C488A54226
:1097D00002BFBFF32F8F00220DE0C4892544848986
:1097E000A54228BF2D1BC3EA054540E80254002CC2
:1097F000E8D14FF001028DF803200193019B9DF801
:1098000003200B602AB14B880068184402B030BCBA
:10981000704702F0FF031846F8E700BF0A884B883C
:109820009A4201D00020704750E8022FC2EA22423B
:1098300040E80223002BF7D10120704701F01F02FE
:109840004B09012100EB8300914000F07BB800BF81
:1098500010B5012301F01F04490900EB810003FA50
:1098600004F100F063F8E04000F0010010BD00BF1B
:1098700001F01F0201234909934000EB8100D94305
:1098800000F06CB84B0901F01F0150F82300C840EC
:1098900000F00100704700BF2DE9F84F01F1FF39DA
:1098A0004FEA591300F104090E46074609EB8309F4
:1098B00082464FF0000B4FF001080EE0DAF800305E
:1098C000DB4393FAA3F3B3FA83F45C447BB90AF164
:1098D000040AD1450BF1200B1AD0DAF80040E4431A
:1098E00094FAA4F4002CF2D0B4FA84F45C44A642B6
:1098F000EDD904F01F05600908FA05F107EB8000B7
:1099000000F014F8E840C307D8D42046BDE8F88F2B
:1099100034462046BDE8F88F50E8002F0B4640E85B
:10992000003C9CF0000FF7D11046704750E8002F24
:1099300042EA010340E8003C9CF0000FF6D11046DB
:10994000704700BF50E8003F43EA010240E8002CA6
:109950009CF0000FF6D11046704700BF50E8003F62
:1099600003EA010240E8002C9CF0000FF6D11046FB
:10997000704700BF50E8002F02EB010340E8003CB5
:109980009CF0000FF6D11046704700BF50E8003F32
:1099900003EB010240E8002C9CF0000FF6D11046CA
:1099A000704700BF50E8003FA3EB010240E8002CE5
:1099B0009CF0000FF6D11046704700BF012350E81D
:1099C000002F42EA030C40E800C191F0000FF6D1ED
:1099D00060467047002350E800CF0CEA030240E8DD
:1099E000002191F0000FF6D160467047F0B583B0CA
:1099F00002AB002503F8015D04461846FEF7A0FC03
:109A0000D4E900311A688A4210D9511E19602168C0
:109A1000A3680F6812F8015C0A79268AE068DB1BEC
:109A2000DBB29A4206FB050538BF0B719DF80700B3
:109A3000FEF7ACFC284603B0F0BD00BF30B583B0E4
:109A400002AB002203F8012D054618460C46FEF72E
:109A500077FC2A681368591C1160E9682A8A641A1D
:109A6000B4FBF2F41C709DF80700FEF78FFC03B006
:109A700030BD00BF2DE9F04182B0002854D0002A4B
:109A800064D0D0F800C0BCF1000F69D01C46002B98
:109A900033D04768D7F80480B3FBF8F708FB1737D3
:109AA000002F3CD18F0723D112F0030F53D1C76889
:109AB000B94211D23248334C334B344A3449001B3B
:109AC000C0081024000440F001000094FDF7FCFEE3
:109AD000204602B0BDE8F0814E1E05693444AC4218
:109AE000E8D8DCF80C40A44602B0BDE8F04160477D
:109AF0002348244C244B274AE0E72148214C224BA1
:109B0000254A2349001BC0080924000440F0010035
:109B10000094FDF7D9FE204602B0BDE8F081184858
:109B2000184C194B1D4AECE71548164C164B1C4AAD
:109B30001749001BC0080E24000440F001000094E7
:109B4000FDF7C2FE204602B0BDE8F0810C480D4C86
:109B50000D4B144AECE70A480A4C0B4B124AADE78E
:109B6000084C0748084B114A0949001BC008082443
:109B7000000440F001000094FDF7A6FE2046A8E78F
:109B8000B41B0300641B03007402030018040300E9
:109B90001C030300DC03030058030300B0030300AD
:109BA00014030300A8030300F40303009C03030051
:109BB000F0B583B0002843D0D0F800C0BCF1000F4E
:109BC0004ED03AB34768D7F800E00EF1FF370F42A6
:109BD00031D1C768B94210D229482A4C2A4B2B4AA6
:109BE0002B49001BC0081024000440F00100009421
:109BF000FDF76AFE204603B0F0BD4D1E04690EFB62
:109C00000255A542E8D8DCF81040A44603B0BDE8F0
:109C1000F04060471B4C1A481B4B1E4A1C49001B56
:109C2000C0080924000440F001000094FDF74CFE38
:109C3000204603B0F0BD1248124C134B164ACFE732
:109C4000104C0F48104B154A1149001BC0080E2438
:109C5000000440F001000094FDF736FE2046CAE7FC
:109C6000084C0748084B0E4A0949001BC008082445
:109C7000000440F001000094FDF726FE2046BAE7FC
:109C8000B41B0300641B030088020300C40203002A
:109C90001C030300580303009C0203001403030089
:109CA0009C03030029DF704728DF7047034B187AB5
:109CB0000122B0FA80F05A7440097047A8290020A8
:109CC00030B55E4C237A87B0002B3AD05C4B1B68D2
:109CD000022222721A79002A3ED0012A0CD1D3E93D
:109CE00003021044FFF7E0FF002849D0112803D1F8
:109CF0000123237207B030BD19688A68C2B10022FF
:109D000068460092C0E902220325026101959A6823
:109D100005921A79002A4BD0012A07D102228DF828
:109D20000020DA68120302925B6904938B689847FB
:109D300000234449444823726360FFF76FFD07B076
:109D400030BD40494048FFF73BFD3D4A03461060A7
:109D50000028BDD16060F2E7D3E90525521BB2F5BA
:109D6000805F28BF4FF48052D3E903109208012A84
:109D700038BF012229442844FFF794FF0028B5D1B9
:109D8000227C002ADBD1227A002AD8D0022A0AD1EA
:109D9000E0601A79DAB1012A05D1D3E90421013250
:109DA0008A421A611FD0637C73B106F007F8C6E7D8
:109DB00001228DF800201A690292DA6803925B6929
:109DC00004938B689847B3E7FFF77AFFB7E7D3E9C7
:109DD0000512881AB0F5805F94BF121802F5805200
:109DE00091429A61DFD10022227219688868A8B175
:109DF00068460092C0E90122C0E903229A680592F0
:109E00001A7982B1012A07D102228DF80020DA687E
:109E1000120302925B6904938B68984709490A48C8
:109E2000FFF7FCFCBFE701228DF800201A690292BF
:109E3000DA6803925B690493EEE700BFA82900206B
:109E4000C0290020BC2900209829002000F0FD0333
:109E5000012B00D0704730B5604CA0F10100B0FA82
:109E600080F0237A4009002287B020746274002BAE
:109E70003AD05B4B1B68022222721A79002A3ED02C
:109E8000012A0CD1D3E903021044FFF70DFF00288B
:109E900049D0112803D10123237207B030BD1968BE
:109EA0008A68C2B1002268460092C0E902220325F6
:109EB000026101959A6805921A79002A4BD0012A0D
:109EC00007D102228DF80020DA68120302925B6942
:109ED00004938B6898470023424943482372636088
:109EE000FFF79CFC07B030BD3E493F48FFF768FCD8
:109EF0003B4A034610600028BDD16060F2E7D3E919
:109F00000525521BB2F5805F28BF4FF48052D3E97C
:109F100003109208012A38BF012229442844FFF780
:109F2000C1FE0028B5D1227C002ADBD1227A002A8A
:109F3000D8D0022A0AD1E0601A79CAB1012A05D123
:109F4000D3E9042101328A421A611DD0637C63B1D6
:109F500005F034FFC6E701228DF800201A6902924D
:109F6000DA6803925B690493B3E7FFF7A9FEB9E7E8
:109F7000D3E90512881AB0F5805F94BF121802F574
:109F8000805291429A61E1D1002222721968886858
:109F9000A8B168460092C0E90122C0E903229A688C
:109FA00005921A7982B1012A07D102228DF8002088
:109FB000DA68120302925B6904938B689847094937
:109FC0000948FFF72BFCC1E701228DF800201A6930
:109FD0000292DA6803925B690493EEE7A8290020F5
:109FE000C0290020BC29002098290020831E012BB5
:109FF00000D9704730B58E4C237A87B0002B31D012
:10A00000022B2BD103286BD1E3680133082B79D9BC
:10A01000884B00221B68E26022720D2519688A684D
:10A02000C2B1002268460092C0E902220261019595
:10A030009A6805921A79002A00F0B980012A07D19E
:10A0400002228DF80020DA68120302925B69049301
:10A050008B68984778497948FFF7E0FB637C1BB130
:10A0600005F0ACFE07B030BD237A002B5BD0714BFE
:10A070001B68022222721A79002A5FD0012A0BD1B2
:10A08000D3E903021044FFF70FFE002869D011281E
:10A0900002D101232372E5E719688A68C2B1002260
:10A0A00068460092C0E902220325026101959A6880
:10A0B00005921A79002A70D0012A07D102228DF860
:10A0C0000020DA68120302925B6904938B68984758
:10A0D00000235949594823726360FFF79FFBC1E78A
:10A0E000544B00221B68E2601A796AB1012AB5D18B
:10A0F000D3E9042101328A421A6111D0637C002B1A
:10A10000AED1B4E7E360F9E7D3E90512881AB0F5F8
:10A11000805F94BF121802F5805291429A61EDD18E
:10A12000002525727AE744494448FFF749FB414A34
:10A130000346106000289CD1606093E7D3E90525B1
:10A14000521BB2F5805FD3E9031028BF4FF4805251
:10A150009208012A38BF012229442844FFF7A2FDB2
:10A1600093E7227C002A7FF47DAF227A002A3FF415
:10A1700079AF022A0AD1E0601A7912B3012A05D117
:10A18000D3E9042101328A421A6126D0637C002B74
:10A190007FF466AFFFF794FD64E701228DF800209D
:10A1A0001A690292DA6803925B6904938EE70122CE
:10A1B0008DF800201A690292DA6803925B690493B1
:10A1C00046E7D3E90512881AB0F5805F94BF1218EC
:10A1D00002F5805291429A61D8D100222272196808
:10A1E0008868A8B168460092C0E90122C0E903224C
:10A1F0009A6805921A7982B1012A07D102228DF854
:10A200000020DA68120302925B6904938B68984716
:10A2100009490A48FFF702FBB8E701228DF8002040
:10A220001A690292DA6803925B690493EEE700BF51
:10A23000A8290020C0290020BC290020982900203E
:10A240002DE9F041058ACE1C043D2E440746B6FB9D
:10A25000F5F6FFF7CBFB78B3F6B24FF48073013E0F
:10A260000446C5800760838027D08046002509E02A
:10A270006379AE4203F101036371C8F8000007601F
:10A2800080461AD03846FFF7B1FB01350028EFD1E0
:10A290006679721E14D02346013082421B68FBD1BE
:10A2A0001F684EB1002523682146013538461C46FB
:10A2B000FFF7C4FBAE42F6D100242046BDE8F08192
:10A2C0002768EFE704300121FFF760BBF8B50121F3
:10A2D00004460430FFF766FBC0B200B1F8BD6679F2
:10A2E000721E12D02346013082421B68FBD11F68C8
:10A2F000002EF3D0002523682146013538461C4640
:10A30000FFF79CFBAE42F6D1F8BD2768F2E700BF2D
:10A310002DE9F843C788467907FB06F6043E02EBB1
:10A32000030C0446664503F1040015468846B0FB5D
:10A33000F7F238BFF51A07FB120012B1013A246890
:10A34000FCD13E1AAE4228BF2E469DB14FF0000907
:10A350000430AD1B2044324608EB090105F005FF2F
:10A36000AF42B14424683E464FF0000028BF2E465D
:10A37000002DEDD1BDE8F88301600B6843604A68A9
:10A38000934204BF00234360704700BF436843B15A
:10A39000026891680B4443605268934204BF0023F3
:10A3A0004360704770B54468064620680D4618B98A
:10A3B00008E02468206828B1B36829469847002837
:10A3C000F7D120682860256070BD00BF4368186819
:10A3D00008B102681A60704743681868704700BF88
:10A3E0004068036873B18B4203D107E0814204D017
:10A3F000034618680028F9D1704718460B680360B7
:10A40000012070471846704730B4184DA5F5947276
:10A41000AB1ADB1003EBD3735B1002EBC30152F8F2
:10A420003330984228BF0C4605D311E052F8333040
:10A4300098420CD221468B1ADB1003EBD3735B10CE
:10A440008A4202EBC304F1D3094830BC70470D4681
:10A45000984204D904F10802AA42D9D3F4E760680B
:10A46000034B002808BF1846EFE700BFA405030010
:10A470006804030010B4754B1B68082B1CD0744A89
:10A48000D2F8883043F47003C2F88830BFF34F8F9E
:10A49000BFF36F8F4FF01023D3F80022002AC0F2D1
:10A4A000A380D3F80432002BC0F29E80694B6A4A25
:10A4B0001A605DF8044B70474FF080414FF08052B6
:10A4C0000020C1F80C01654BC1F81001C1F8380536
:10A4D000D2F80414C3F82015D2F80814C3F82415D0
:10A4E000D2F80C14C3F82815D2F81014C3F82C15A0
:10A4F000D2F81414C3F83015D2F81814C3F8341570
:10A50000D2F81C14C3F84015D2F82014C3F844152F
:10A51000D2F82414C3F84815D2F82814C3F84C15FF
:10A52000D2F82C14C3F85015D2F83014C3F85415CF
:10A53000D2F83414C3F86015D2F83814C3F864158F
:10A54000D2F83C04C3F868054549D2F84004C3F882
:10A550006C050968D2F84424C3F87025032937D85C
:10A56000404B5B5C13B1404B404A1A60404B5B5C14
:10A5700063B1364B3F491B68394AFB20C1F81805C7
:10A58000082B11687FF47BAF032921D83A4B5B5C21
:10A5900093B13A483A4B2D4C02681B682468304905
:10A5A00022F00F0203F00F031343082C0968036025
:10A5B0007FF465AF03290BD8324B5B5C43B1234B6F
:10A5C000314A1B684FF40071082B11607FF457AFBC
:10A5D0004FF08043D3F80024D2077FF550AF6FF0DF
:10A5E0000102C3F800244AE7284B0122C3F80425DE
:10A5F000D3F80024002AFBD04FF010231222234965
:10A60000C3F80022D1F80034002BFBD04FF0102209
:10A6100012211E4BC2F80412D3F80024002AFBD0EA
:10A6200000221A49C3F80425D1F80034002BFBD0CE
:10A63000BFF34F8F0649164BCA6802F4E06213431A
:10A64000CB60BFF34F8F00BFFDE700BF30010010AC
:10A6500000ED00E0682200200090D00300C0004020
:10A6600034010010900903008C560040488103001B
:10A670009009030000F0004090090300E40E004040
:10A6800058020010900903004096024000E001408B
:10A690000400FA05074B1B5C1F2B86BF03F01F034A
:10A6A00005494FF0A041012202FA03F3C1F80C352D
:10A6B000704700BF9409030000030050074B1B5C68
:10A6C0001F2B86BF03F01F0305494FF0A041012255
:10A6D00002FA03F3C1F80835704700BF940903007C
:10A6E00000030050C20730B40ED483070AD54FF0E0
:10A6F000A0430C22C3F82C27C3F83027C3F86027E7
:10A70000C3F8642730BC70474FF0A0430322C3F85E
:10A7100034274FF40055C3F838274FF48044C3F86A
:10A720003C274FF40041C3F840274FF48032C3F870
:10A730000855C3F80845C3F80815C3F80825D4E739
:10A7400010B570B101280BD10D4C2369A0703BB13D
:10A75000D3E900230120226198472369002BF7D118
:10A7600010BD074CA36801226270002BF8D0D3E91A
:10A7700000230020A2609847A368002BF7D1EFE7E1
:10A78000C429002070B910B5074CA368012262707B
:10A790003BB1D3E900230020A2609847A368002BB7
:10A7A000F7D110BD704700BFC429002030B5012883
:10A7B00083B025D01AD3032816D100F065F802A87B
:10A7C0000023264C00F8013DFDF7BAFDE368013B8C
:10A7D000E360E36823B9224BD3F80054002D36D050
:10A7E0009DF80700FDF7D2FD03B030BD1D4B0122DF
:10A7F000C3F88020BFF34F8FBFF36F8F03B030BD1E
:10A8000002A80023154C00F8013DFDF799FD2378BF
:10A8100053B1E3689DF8070001330122E360A270A1
:10A82000FDF7B4FD03B030BD0F486360A360236142
:10A83000E36000F01BF805F0D1FA60B10123084A8B
:10A840002370D2F80024002AE3D0A370E1E700F0DF
:10A850002DF8A570C4E700F017F8EFE7C429002031
:10A860000000014000E100E041A70200054A137921
:10A870002BB9012110605371184611717047852062
:10A88000704700BFD8290020074B1A68D20704D4AC
:10A89000C02283F8002301221A604FF08043012276
:10A8A000C3F81825704700BF00E100E010B40B4B5F
:10A8B0000B494FF0804200200224C2F8084383B0C5
:10A8C00018601B680193012301980B60D2F81834BB
:10A8D000DB03FBD403B05DF8044B70470401004078
:10A8E0000C00004010B5154B1A6882B07AB10021F7
:10A8F000134A19601B68507900934FF0804101237F
:10A90000009CC1F8083310B91168537188470D4B8A
:10A910001A6882B100221A601B6801934FF08042CE
:10A920000221074B0198C2F808131B68012002B0EE
:10A93000BDE81040184702B010BD00BF0001004044
:10A94000D82900200401004030B5254C94F86A3025
:10A9500083B0002B41D14FF0FF32FF254FF6FF703F
:10A9600005E05A09012A0CBF02464FF0FF3203F0FE
:10A970001F01CA40D20744BFE21882F830502F2B83
:10A9800003F10103EDD14FF0FF33062200211548FA
:10A990002366C4E90033C4E90233C4E90433C4E9DB
:10A9A0000633C4E90833C4E90A3305F0E9FB0E4B6A
:10A9B000C02283F8062340221A600C4B0C4A002068
:10A9C00018601B680193019D01214FF0004384F83A
:10A9D0006A10C2F8043303B030BD082003B030BDA4
:10A9E000E0290020442A002000E100E07C610040D2
:10A9F00000600040034B93F86A00003018BF01204C
:10AA0000704700BFE0290020F0B5744B1C1894F982
:10AA10003050002D6ADA8E78C6F340069646002E36
:10AA20005ED11D6A013500F0C48009240C2553F85D
:10AA3000247001375DD004F1010C53F82C700137FC
:10AA400000F0C280A71CAF4248D253F82720013241
:10AA500000F0BC8004F1030CAC453FD253F82C70DD
:10AA6000013700F0B18004F1040CAC4536D253F844
:10AA70002C70013700F0A88004F1050CAC452DD2F4
:10AA800053F82C70013700F09F8004F1060CAC45A0
:10AA900024D253F82C70013700F0968004F1070C93
:10AAA000AC451BD253F82C70013700F08D8004F1B7
:10AAB000080CAC4512D253F82C70013700F084809A
:10AAC00004F1090CAC4509D253F82C7001377BD046
:10AAD0000A34AC4202D2DC6A013409D00420F0BD51
:10AAE0001D68013574D001240825A0E70820F0BDB9
:10AAF0000B241F1865B243F824E087F83050002E6D
:10AB00005ED08A7854071AD4D60741D41F284A78D1
:10AB100087BF334E00F01F0404464FF0A04604F5F3
:10AB2000E074920046F824202E4EC40800F0070C72
:10AB3000375D012202FA0CF23A4332558A780C78DA
:10AB400012F0020209D1083D2B44104693F8602010
:10AB500042EA841483F86040F0BDAB0003F1804307
:10AB600003F5C0430202D3F8101521F44F3121F44C
:10AB70004071C3F810152404D3F8101504F44034C0
:10AB800002F47C5222430A43C3F810250020F0BD92
:10AB90001F2887BF124A00F01F0404464FF0A0424E
:10ABA00002EB8402D2F8004724F00204C2F8004706
:10ABB000BAE7082684F83060C3F820E0354634460A
:10ABC0001C4484F858009CE7644692E73C4690E7B2
:10ABD00000251A6084F8305093E700BFE029002078
:10ABE00000030050442A002070B43A4D2E1883B060
:10ABF00096F93030072B20DD2B4493F858309B0911
:10AC0000032B45D0012B14BF4FF440314FF40031DA
:10AC10001F284DD900F01F002F4B03EB8000D0F808
:10AC2000002722F44032C0F80027D0F800370B4349
:10AC3000C0F8003703B070BC7047DAB2072AF9D801
:10AC4000980000F1804000F5C04003F14002D0F8C8
:10AC50001045920092B244F0010402F18042C0F823
:10AC6000104502F5C04200200190019C10600029AF
:10AC7000E0D096F9302055F82220002ADAD00122BF
:10AC8000164902FA03F3C1F8043303B070BC7047ED
:10AC90001F2810D9104BD3F8103500F01F00C34007
:10ACA00013F0010F0CBF4FF400314FF44031B3E704
:10ACB0004FF0A043B1E74FF0A0421346D2F8102561
:10ACC000C24012F0010F14BF4FF440314FF4003175
:10ACD000A3E700BFE029002000030050006000400F
:10ACE0001F288ABF054B4FF0A04300F01F00D3F888
:10ACF000103523FA00F000F0010070470003005007
:10AD00002DE9F04F002385B0CDE902339D4A11684B
:10AD1000012900F0C1801E469B4B1A68012A00F0F1
:10AD2000AD809A4B1A68012A00F09A80984B1A68F5
:10AD3000012A57D0974B1A68012A63D0964B1A689C
:10AD4000012A6FD0954B1A68012A7BD0944B1A6860
:10AD5000012A3AD0934B1A68012A13D100221A60B3
:10AD60001B6801934FF0A042019BD2F820158E4B37
:10AD70000291C2F82015D3F82025039246F0004630
:10AD8000C3F8202516F0FF0F1AD0884F00240125A4
:10AD9000A30003F180432E4203F5C0434FEA45056B
:10ADA0000BD0D3F8100557F82420D3F81015C0F3B2
:10ADB0000520C1F3014102B190470134082CE7D1CD
:10ADC000002E75DB05B0BDE8F08F794AD2F8042378
:10ADD0001206BFD500221A601B680093009B46F044
:10ADE0008006B7E7724AD2F804231507A2D50022DD
:10ADF0001A601B680093009B664B1A68012A46F094
:10AE000008069BD16A4AD2F80423D40696D50022BC
:10AE10001A601B680093009B5F4B1A68012A46F07A
:10AE200010068FD1624AD2F8042390068AD50022F8
:10AE30001A601B680093009B584B1A68012A46F061
:10AE4000200683D15A4AD2F8042351067FF57EAFFB
:10AE500000221A601B680093009B46F0400675E7CD
:10AE6000534AD2F8042357077FF560AF00221A60D7
:10AE70001B680093009B46F0040657E74C4AD2F843
:10AE8000042392077FF54DAF00221A601B680093E0
:10AE9000009B46F0020644E74549D1F8046316F0EA
:10AEA00001063FF439AF136013680093009B33E74A
:10AEB000404EDFF8F480A6F164073F4C012514F9F9
:10AEC000011B4B1C3CD0C9B204AB21F0C00003EB0A
:10AED000D00201F0070312F8082C05FA03F31A4216
:10AEE0002ED01F2887BF01F01F0CC24684464FF0AA
:10AEF000A04A0AEB8C033A18D3F800E7D3F800977E
:10AF000092F9302029F44039C3F80097CEF3014E6E
:10AF1000D3F8009757F82220BEF1020F14BF4FF468
:10AF2000003B4FF4403B05FA0CFC49EA0B09C3F81F
:10AF30000097CAF820C51AB18909032915D190478D
:10AF4000B442BCD14FF0A042D2F820350293C2F8EF
:10AF50002035D8F820250392C8F82025002BACD145
:10AF6000002AAAD105B0BDE8F08FBEF1020F05D0CE
:10AF7000BEF1030FE4D10229E2D1E0E70129DFD1DC
:10AF8000DDE700BF0061004004610040086100404F
:10AF90000C610040106100401461004018610040E5
:10AFA0001C6100407C61004000030050E02900204B
:10AFB00000600040442A0020402A0020014B1B680A
:10AFC000184700BF4C2A0020032811D8012A0BD0B3
:10AFD000012919D00ED302290AD10E4B00EB4000F3
:10AFE000034400205A70704701290AD00022EFE77D
:10AFF00007207047074B00EB4000034400209A7085
:10B00000704700F10E02D2B200EB4003014900206C
:10B01000CA547047542A002010B50388102B07D05B
:10B02000112B04D1254B18680138186030B110BDC0
:10B03000224C216881B10131216010BD0122022121
:10B04000FFF7C2FF38B3072825D01D4B1B68002B24
:10B05000EDD0BDE81040184701220846FFF7B4FFC5
:10B0600038B1072805D0164B1B6803B198472168F3
:10B07000E1E7072202210120FFF7A6FF08B1072818
:10B08000F1D1042202210020FFF79EFF0028EED01C
:10B090000728E8D1EBE7072202210120FFF794FF00
:10B0A00008B10728D1D1002108460A22FFF78CFFFA
:10B0B0000028BCD00728C8D110BD00BF642A0020DA
:10B0C000602A002072DF704773DF70477ADF7047B5
:10B0D0007CDF7047A8DF7047AEDF704762DF7047E4
:10B0E000704700BF10B50388102B13D0112B10D15F
:10B0F0000320FFF7E3FA0F4A0F4B107801214FF6B8
:10B10000FF721A80FFF7E0FF0220BDE81040FFF752
:10B11000C1BA10BD04460220FFF7D0FA0320FFF7A2
:10B12000B9FA054BA18819800448BDE8104002F027
:10B130007DBA00BF8422002086220020BC2A002085
:10B1400010BB30B5012987B00C461ED009B30125CC
:10B1500002A8102200218DF80540ADF8065005F038
:10B160000FF80E4A0E4B148818888DF80A500DF10E
:10B1700005020DF1060302A9ADF80840CDE904323D
:10B18000FFF7AAFF07B030BD70470846FFF782FA05
:10B19000DDE70120FFF792FAD9E700BF7C2D002000
:10B1A000862200202DE9F047B4B034AD0120002400
:10B1B000FFF798FAFDF70EF804F002FD40F2333283
:10B1C00001216748DFF8B491664FDFF8B481FCF7DE
:10B1D000A9FDFCF703FE45F8CC4D0120294604F0FB
:10B1E0004BFE34AE284604F003FF112306F8783DE9
:10B1F000484604F0CDFF494682B23046FFF768FF6B
:10B20000214625A8082204F0BBFF4FF050124FF052
:10B21000C87325A8CDE92523FFF758FF21465248DA
:10B2200002F0B8F825A9514B5148259302F0ECF9EA
:10B23000504B0FCB04AD85E80F000DF101012846FE
:10B24000FFF74CFF41F2342A9DF801308DF80A30A7
:10B250000DF1020202A90120ADF808A0FFF73AFFA4
:10B2600021460EA8202204F08BFF9DF845309DF862
:10B2700001508DF83A5043F0120301250EA98DF8C4
:10B2800045303D4ABDF80200ADF838A04FF001133B
:10B290000F93B9468DF849508DF84B5000F0E8FDFA
:10B2A0009DF80130ADF80CA0214630463C228DF8C7
:10B2B0000E304FF0020A04F063FF2146062325A852
:10B2C0003C228DF85B308DF85A508DF858A004F070
:10B2D00057FF59F80C1BADF8A45003AB3A1D30468C
:10B2E0002A9300F0B1F84A46B96825A800F0ACF8F6
:10B2F000214608A8182204F043FF4FF4807640232B
:10B3000008AA394640460A93ADF82C408DF82050E3
:10B310000994ADF83460FFF7D5FE214625A81C221C
:10B3200004F02EFF4FF4A03203234FF4A02125A8F0
:10B33000CDE926128DF8A0302594ADF8A2408DF805
:10B34000A45000F0B1FB294698F80000FFF7BCFEBE
:10B350005046FFF79FF9204634B0BDE8F08700BFA4
:10B360006C22002074220020A82A0020E1B00200F4
:10B37000BC2A0020C40903007C2D0020D40903004E
:10B38000842200206DDF704779DF70477DDF7047D2
:10B3900064DF70472DE9F04F83B004880C9EBDF840
:10B3A0003490B6F800A0002C39D0984600231746F8
:10B3B0008B4605461C4603E02A880134A24224DD60
:10B3C0006A6852F82400019000220DF1030101A8DF
:10B3D000FFF7DEFF20BB9DF80320BA42ECD1328894
:10B3E000B91803B389452BDB42440DF1030101A8D1
:10B3F0000123FFF7CDFF98B931889DF803200A4457
:10B4000032802A880134A242DADC43B13388013B1E
:10B41000A3EB0A039BB2FF2B12D808F80A300020D6
:10B4200003B0BDE8F08F02310132894592B207DBEB
:10B43000328008F802B03288013292B23280D3E70B
:10B440000C2003B0BDE8F08F2DE9F04700231788EA
:10B45000138090F82D3086B0144605460E46002B1A
:10B4600040F0FB80AA78002A40F0FD80EA78A2B183
:10B47000D91CB94200F2F3800221F1542388013330
:10B480009BB201212380F15423880B449BB223807B
:10B49000F25423880B449BB223806A68AAB1D91C5A
:10B4A000B94200F2DC80022192F90020F154238895
:10B4B00001339BB20A212380F154238801339BB2CC
:10B4C0002380F2542388013323802B89002B40F002
:10B4D0001B812B8A002B40F02F812B8B002B40F0FF
:10B4E00043812B6A002B44D02288911DB94200F27F
:10B4F000B6801988052940F203816FF4486801EB92
:10B50000080080B24FF27D3C604540F2F9805888D7
:10B51000052840F2F5806FF4486E86441FFA8EFECF
:10B52000E64540F2ED804FF6FF7C614504D0604572
:10B5300002D0814200F2E4800521B1542288013218
:10B5400092B212212280B1542288013292B222801A
:10B550001988B1543244090A51702288023292B2D9
:10B5600022805B88B35432441B0A53702388023311
:10B5700023806B6A002B2FD09988B4F800C0881CF8
:10B580000CF102020244BA4269D8FE2867D803319E
:10B5900006F80C102288013292B2FF212280B154A9
:10B5A0002288013292B222801988B1543244090AA9
:10B5B00051702088023080B220809A8862B19968E8
:10B5C0000393002900F09C80304404F0CEFD039BDF
:10B5D0009A8823881344238095F82C30002B40F060
:10B5E0008A80287800283BD02B88012B00F08880A7
:10B5F000228802F1020CBC4531D8012804D16B78B5
:10B60000023313449F422AD3BB1E9B1A06A99BB246
:10B6100021F8083D06EB0C00FFF7B8FE00BB2978C7
:10B62000BDF81020022900F0048168789042C0F033
:10B63000FB809342C0F0F8800921FE2A0FD82388AE
:10B64000501CF054238801339BB22380F15423888B
:10B6500001331A442280002002E0082F23D80C2056
:10B6600006B0BDE8F0870433BB42F8D804A8FFF762
:10B670008BFE0028F4D12388BDF810200321F1545B
:10B68000238801339BB219212380F154238801338D
:10B690009BB2F1182380F254120A4A7023880233B5
:10B6A0009BB22380E2E604A8FFF76CFE0028D7D106
:10B6B00013880822CA54238801339BB21B2223809B
:10B6C000CA542088013080B22080062208440DF13F
:10B6D000110104F04AFD23889DF8102006339BB227
:10B6E00012F0FE0218BF01222380F2542388013396
:10B6F0009BB22380B6E6D5F82880B8F1000F4CD174
:10B70000072006B0BDE8F08705F108080222CDE960
:10B710000047404611463346FFF73CFE00289FD1C4
:10B72000CDE900474046334610220621FFF732FE9E
:10B7300000283FF4CEAE93E705F11008CDE90047AD
:10B740004046334602220321FFF724FE002887D11A
:10B75000CDE900474046334610220721FFF71AFE85
:10B7600000283FF4BAAE7BE705F11808CDE90047A1
:10B770004046334602221421FFF70CFE00287FF4D6
:10B780006FAFCDE900474046334610221521FFF741
:10B7900001FE00283FF4A5AE62E7B8F804200232AB
:10B7A000FE2A3FF65CAF23884FF000094FF0160ADF
:10B7B0000132F254238801339BB2238006F803A0A0
:10B7C000238801339BB22380B8F80020F25433441D
:10B7D000120A5A70238802339BB22380B8F80410EF
:10B7E000F0180A4661B1D8F808301946002B87D006
:10B7F00004F0BBFCB8F80420238813449BB22380D8
:10B8000009F1010995F82C205FFA89F94A4509EBFD
:10B8100049087FF6E6AEAA6A02EB8808B8F8042069
:10B820000232FE2AC4D91AE7012906D01A46082195
:10B8300003E79342BFF400AFF8E78342F6D3024632
:10B840000821FAE675DF704776DF70477ADF7047C8
:10B850007BDF704730B51D4B1A8884B2A24283B09B
:10B8600001D003B030BD1A4D187A297B88420FD31E
:10B870002A7C00211972E2B96B69002BF1D00022F9
:10B88000ADF806408DF8042001A8984703B030BDFC
:10B89000104603F10A01FFF7D5FF28B11128E0D0C7
:10B8A000AB69002BF1D1DCE71A7A01321A7203B0CE
:10B8B00030BD3B212046FFF7C7FF30F00803DBD047
:10B8C000AB69002BD8D09847D6E700BFE42A002008
:10B8D000C82A0020F0B50288112A83B0034649D057
:10B8E00036D9122A08D0502A04D16C4DC188EA8971
:10B8F000914251D003B0F0BD694C828821889142B9
:10B90000F8D1E1896589B1F5FA7F24BF6FF4F97048
:10B910000E18588938BF002685424FD8A589854220
:10B920004CD39B89B34249D301F2F311994245D3D9
:10B930005A4B5B694FF480712181002BDAD00121D1
:10B94000ADF806208DF8041001A8984703B0F0BDAB
:10B95000102ACFD1C27B012ACCD1514C21884FF67D
:10B96000FF7291423CD04D4B9B69002BC2D004200A
:10B970009847BFE74A4C828823889A42BAD16068C8
:10B98000FCF7BCFC18B1454B9B6903B198474FF6D7
:10B99000FF73238003B0F0BD028A022AAAD1404C73
:10B9A00086882788B742A5D1123000F05DFA0028BA
:10B9B00056D16068FCF7A2FC70B99BE7374D267A38
:10B9C0006068D5E90131002E08BF19460023637273
:10B9D000FCF744FC00288DD0AB69002BB5D189E77A
:10B9E000304D8288228003CDC4F80E10E689C4F859
:10B9F0000A00B6F5FA7F28BF6FF4F9754FF0000121
:10BA0000588AB4F80AC0217228BF7119234D8445A1
:10BA1000EF8919D8B4F80CC0844515D39B8A8B42A2
:10BA200012D306F2F3169E420ED301216172002F4B
:10BA30007FF460AF6B69002B3FF45CAF8DF80410AE
:10BA4000ADF8062001A880E700236372002F7FF481
:10BA500051AF60686968FCF701FC0028BCD149E778
:10BA6000637A63B9D5E90131267A60683A46002ED7
:10BA700008BF1946FCF7F2FB0028ADD13AE76B6925
:10BA800000222272002B3FF435AF0122ADF8066090
:10BA90008DF8042001A898472CE700BFC82A002091
:10BAA000E42A0020F82A002000282FD0F8B5054607
:10BAB00006460FCD164F3C460FC4844695E8070056
:10BAC000144B3B6084E80700BCF1000F18D06046BF
:10BAD000FFF7BCFE98B932681068516803C30E4B7B
:10BAE0000E490F4A18464FF6FF7440F8041F1C8099
:10BAF0000021FCF7A5FB002814BF03200020F8BD9F
:10BB00001846FFF7A5FE0028E9D0F8BD0E207047C3
:10BB1000C82A0020F82A0020E42A0020002B002058
:10BB200055B802002DE9F0470388B0F80490103BA7
:10BB300098B080460A2B1BD8DFE803F02F281A1A8A
:10BB40001A1A1A1A1A1D0600047A46482409032CE8
:10BB5000494665D8FDF78CFE032C63D04946424820
:10BB6000FDF786FE022C61D049464048FDF780FE75
:10BB700018B0BDE8F087037A002BF9D1437A394831
:10BB80001B0749466AD4FDF773FEF1E7494638487A
:10BB9000FDF76EFE18B0BDE8F087364A936818A826
:10BBA000DB4340F8603D5168FDF7D8FE009B0193F0
:10BBB000019B63B300273C46214601A8FDF762FEC6
:10BBC00028B118AB03EB4703013723F8284C0134A5
:10BBD000142CF1D10D970DAE0FCE02AC0FC40FCEC9
:10BBE0000FC496E8070084E8070087B10DF10A0A40
:10BBF000214E0AEB47073AF8025F204C20462946BF
:10BC00000434FDF735FEA642F8D1BA45F3D1B9F1B7
:10BC1000130F12D90420FCF7F7F818B0BDE8F0872D
:10BC2000FDF70CFE49461048FDF708FE49460F484F
:10BC3000FDF704FE18B0BDE8F08749460C48FDF753
:10BC4000FDFD49460D48FDF7F9FD98F80F30022B30
:10BC50008ED149460A48FDF7F1FD89E7FDF7EEFD73
:10BC600086E700BF382B0020342B0020302B00202B
:10BC7000282B0020202B00209C2B0020242B002090
:10BC80002C2B0020132801D90020704701460148C1
:10BC9000FDF7F8BD242B0020132801D900207047A0
:10BCA00010B5014604460748FDF7ECFD08B9002031
:10BCB00010BD21460448FDF7E5FD002814BF022011
:10BCC000012010BD242B00202C2B0020132801D98B
:10BCD0000020704710B5014604460748FDF7D2FD25
:10BCE00008B9002010BD21460448FDF7CBFD00280F
:10BCF00014BF0220012010BD242B0020282B00207F
:10BD0000132801D90020704710B5014604460648A3
:10BD1000FDF7B8FD08B9002010BD21460348BDE875
:10BD20001040FDF7AFBD00BF242B0020302B0020BA
:10BD3000132801D90020704710B501460446064873
:10BD4000FDF7A0FD08B9002010BD21460348BDE85D
:10BD50001040FDF797BD00BF242B0020342B00209E
:10BD6000132801D90020704710B501460446064843
:10BD7000FDF788FD08B9002010BD21460348BDE845
:10BD80001040FDF77FBD00BF242B0020382B002082
:10BD900070B50C4C054620460E46FDF773FD08B104
:10BDA000132D01D9002070BD2946201DFDF76AFD25
:10BDB0000028F7D0F01D04EB80002946BDE8704054
:10BDC000FDF760BD202B0020F8B50F4C054620463E
:10BDD00017460E46FDF756FD08B1132D00D9F8BDE4
:10BDE0002946201DFDF74EFD0028F8D0F01D04EB7C
:10BDF000800029461FB9BDE8F840FDF739BDBDE810
:10BE0000F840FDF71BBD00BF202B0020F0B5144CFF
:10BE1000054683B00F46204629461646FDF732FDFB
:10BE200018B90025284603B0F0BD063504EB85049B
:10BE300063680193002FF4D0019B002BF1D0002503
:10BE40002C46214601A8FDF71DFD314610B1A0B2D8
:10BE5000B84701350134142CF3D1284603B0F0BDA6
:10BE6000202B0020AADF7047007800F00100704707
:10BE7000F0B58B7891B0002B0C460988ADF80C100A
:10BE800008BF0123054616466846032200218DF8A7
:10BE90000E3004F075F9637C0022013B8DF8002020
:10BEA000042B09D8DFE813F00500D300D700DB002E
:10BEB000CF0011238DF80030A37C0022013B8DF8C8
:10BEC0000120042B09D8DFE813F00500D200D600CA
:10BED000BA00CE0011238DF801309DF80230E77BC7
:10BEE000227D207C217B67F3C303002A60F30413C7
:10BEF00014BF0222012261F3000362F3420309A886
:10BF00001C2200218DF8023004F03AF9637B13F013
:10BF1000300F73D1627BA37B8DF824200021142283
:10BF200004A88DF8253004F02BF9A368A288CDF879
:10BF300014D003A90491ADF81C201BB1E28808932A
:10BF4000ADF81820A369002B36D001AF03220021E1
:10BF5000384604F015F9A2691388ADF82C305388DF
:10BF6000ADF82E3051680D97137B0A91013B0021EB
:10BF70008DF80410042B2DD8DFE803F0299D8D9156
:10BF8000990011238DF80530917A9DF8063061F300
:10BF9000C3038DF80630D17A61F304138DF80630AF
:10BFA000117A927B002A61F3000314BF022201225E
:10BFB00062F342038DF80630E36903B10C93334614
:10BFC00004AA09A92846FFF74DFF11B0F0BD1123BF
:10BFD0008DF80430537B0021013B8DF80510042BB4
:10BFE000D2D801A151F823F083BF020087C002001C
:10BFF0008FC002007FC00200A7C00200032202A877
:10C00000002104F0BDF8E37C0022013B8DF80920FB
:10C01000042B07D8DFE803F0035F5B5753001123BD
:10C020008DF809309DF80A3002AA0E92012262F3BF
:10C03000420311228DF80A308DF808206AE7122396
:10C040008DF8013049E722238DF8003034E72123B1
:10C050008DF8003030E731238DF800302CE71223C3
:10C060008DF8003028E722238DF8013035E72123B1
:10C070008DF8013031E731238DF801302DE712239F
:10C080008DF8053080E721238DF805307CE73123DA
:10C090008DF8053078E731238DF804309AE71223C4
:10C0A0008DF8043096E722238DF805306CE72223C3
:10C0B0008DF804308EE721238DF804308AE722239F
:10C0C0008DF80930AEE712238DF80930AAE7312345
:10C0D0008DF80930A6E721238DF80930A2E700BFCB
:10C0E000A0DF7047A1DF7047ADDF7047B3DF704757
:10C0F000B4DF704730B583B004460422002168469F
:10C1000004F03EF80C4B02AA1B6842F8043D42F6CC
:10C11000A625012369462046ADF800508DF802306F
:10C12000FFF7DEFF28B905491A4620460978FFF7D0
:10C130004BFE03B030BD00BFE8090300A02B002078
:10C1400070B5012186B005463948FDF7E5FBBFF320
:10C150005F8F08B106B070BD0446284600F044FD6C
:10C16000112806465DD012D986283BD043F202033F
:10C17000984214D12F4B224628461978FFF724FE07
:10C18000BFF35F8F2A4B00221A6006B070BD30B932
:10C19000284B024619782846FFF716FEDAE73046A4
:10C1A000FEF732F9244C254B2549E41AE40824040F
:10C1B00002462B4644F00100FBF708FB002407234E
:10C1C0002846CDE901440396ADF80650CDE9044474
:10C1D0008DF8043000F0B2FFADF8080001A802F0BD
:10C1E000A3FBC7E7154B144816490194C01AC008B1
:10C1F000000406232A4640F002008DF80430ADF812
:10C200000650CDE90244CDE90444FBF769FABDF8D4
:10C21000060000F093FFADF8080001A802F084FBCF
:10C22000A8E7044B284619780122FFF7CDFDA7E7C0
:10C230009C2B0020A42B0020DC1B0300641B0300AC
:10C240002C0A0300F409030070B54FF6FF728AB0A0
:10C2500000249042CDE90044CDE902440494ADF8B5
:10C26000020001D10AB070BD054600F027FD0B2881
:10C27000064643D00FD911280BD043F2020398424F
:10C2800018D122462A4B28461978FFF79DFD0AB09F
:10C2900070BD0122F6E768B90E23BDF802008DF8E3
:10C2A000003000F04BFFADF80400684602F03CFBA4
:10C2B0003246E7E73046FEF7A7F81E4C1E4B1F49F3
:10C2C000E41AE408240402462B4644F00100FBF77C
:10C2D0007DFA002407232846CDE9054407968DF80A
:10C2E0001430ADF81650CDE9084400F027FFADF842
:10C2F000180005A802F018FB2246C3E70E4B0D48B4
:10C300000F49C01AC00800040F232A4640F002005B
:10C310008DF80030FBF7E4F9BDF8020000F00EFFE5
:10C32000ADF80400684602F0FFFA2246AAE700BF13
:10C33000A32B0020DC1B0300641B0300A00B0300E5
:10C34000200B03002DE9F047594E88B0317805469F
:10C35000FFF71EFD10B108B0BDE8F087044628467F
:10C3600000F018FD0828074650D017D800287AD0CA
:10C3700006281DD1284600F0E1FE00F039FD002717
:10C380004C4B3A4619782846FFF71EFD2246317875
:10C390002846FFF719FD08B0BDE8F08743F2020315
:10C3A00098422CD043F2014398422AD0112826D03B
:10C3B0003846FEF729F8404B404A4149A3EB020CAE
:10C3C0004FEADC0C4FEA0C4C02462B464CF00100C5
:10C3D000FBF7FCF9002307222846CDE90333059734
:10C3E000CDE906338DF80C20ADF80E5000F0A6FE16
:10C3F000ADF8100003A802F097FA0127C0E7012763
:10C40000BEE72846FFF720FF0127B9E70DF1060038
:10C41000FFF76CFEBDF80630012BABD92746012390
:10C420000DF108084FF0020942F6021A07E05245E2
:10C430002ED00133BDF806209BB29A429AD94146CC
:10C4400000221846CDE90398FFF752FE42F6052177
:10C4500000288FD1BDF80820002FE8D1571AB7FA6D
:10C4600087F77F09E5E710232846CDE90344CDE9A6
:10C47000054407948DF80C30ADF80E5000F05EFEC8
:10C480000124ADF8100003A802F04EFA274677E722
:10C49000194603AA01AB28460493FFF725FE00289E
:10C4A0007FF468AFBDF80430002B3FF463AF67E75B
:10C4B000A62B0020A52B0020DC1B0300641B03001F
:10C4C000F40B030070B54FF6FF728AB0002490425F
:10C4D000CDE90044CDE902440494ADF8020001D155
:10C4E0000AB070BD054600F0E9FB0B28064643D0B4
:10C4F0000FD911280BD043F20203984218D12246DB
:10C500002A4B28461978FFF75FFC0AB070BD01225C
:10C51000F6E768B90E23BDF802008DF8003000F090
:10C520000DFEADF80400684602F0FEF93246E7E77A
:10C530003046FDF769FF1E4C1E4B1F49E41AE40804
:10C54000240402462B4644F00100FBF73FF9002487
:10C5500007232846CDE9054407968DF81430ADF839
:10C560001650CDE9084400F0E9FDADF8180005A823
:10C5700002F0DAF92246C3E70E4B0D480F49C01A04
:10C58000C00800040F232A4640F002008DF8003056
:10C59000FBF7A6F8BDF8020000F0D0FDADF80400EE
:10C5A000684602F0C1F92246AAE700BFA32B00208B
:10C5B000DC1B0300641B0300A00B0300200B030023
:10C5C0002DE9F04104788AB014B10AB0BDE8F081D9
:10C5D000468800944FF6FF739E420546ADF8026010
:10C5E000CDE90144CDE9034426D105AF304600F042
:10C5F000BBFB28B1484B304619780122FFF7E4FB1A
:10C600006C88204600F09AFD3A460023092101F08B
:10C61000FDF8052826D0414B414918780022FFF744
:10C62000F5FB02460028D0D13E4B3F491878FFF772
:10C63000EDFB0AB0BDE8F081304600F03FFB0B286F
:10C6400080464FD015D9112849D043F202039842B1
:10C650001FD1224605AF354B30461978FFF7B4FBA2
:10C660006E88C3E72F4B204619780122FFF7ACFBF9
:10C67000D1E770B90E23BDF802008DF8003000F04C
:10C680005DFDADF80400684602F04EF905AF424684
:10C69000E1E74046FDF7B8FE254C264B2649E41A53
:10C6A000E4082404024605AF44F001003346FBF7DA
:10C6B0008DF80024072330460594CDF81C808DF8B2
:10C6C00014307C60ADF81660C7E9034400F036FD15
:10C6D000ADF81800384602F027F92246BBE70122E0
:10C6E00005AFB8E7134B12481449C01AC00800043C
:10C6F0000F23324640F002008DF80030FAF7F0FFC9
:10C70000BDF8020000F01AFDADF80400684602F022
:10C710000BF905AF22469EE7A52B0020A42B002095
:10C7200041C10200A12B0020F5C00200A32B002074
:10C73000DC1B0300641B0300A00B0300200B0300A1
:10C74000F0B50378082B83B00ED0304C20783049F8
:10C750000022FFF75BFB024620B92E4B2E491878CA
:10C76000FFF754FB03B0F0BD457A0446002DECD131
:10C77000067A072E22D0082E3ED0012EE5D16A4639
:10C780003146808801F096FB05460028DDD1019BEB
:10C790001B78002BD9D0A08800F09EFD4FF6FF73C8
:10C7A0009842D2D01D4F194C39783246FFF70CFB16
:10C7B0002A4638781A49FFF729FBC7E78088134CC7
:10C7C00000F08AFD4FF6FF7398420646BED0012264
:10C7D0002178FFF7F9FA304600F0B0FC2B466A46A4
:10C7E000092101F013F80528B0D10A4B3046197819
:10C7F0000122FFF7E9FAA9E70A4B1A68012AA4D136
:10C80000BFF35F8F014C1D60A0E700BFA42B002089
:10C8100041C10200A12B0020F5C00200A52B002081
:10C8200045C302009C2B002070B503888588353BEA
:10C8300086B004461F2B28D8DFE813F05D00B8004F
:10C8400027002700270027002700270027002700B0
:10C8500027002700270027002700270027002700A0
:10C860002700270027002700270027002700270090
:10C87000270020002700E90027003500037B012B5B
:10C8800003D1827A012A00F0D2808F4C8F4B9049DD
:10C8900018780022FFF7BAFA20788E490022FFF7B5
:10C8A000B5FA06B070BD002611232846CDE9016611
:10C8B000CDE903668DF80430ADF80650059600F01A
:10C8C0003DFCADF8080000F093FA834B7E4C1978DC
:10C8D00032462846FFF778FA324628462178FFF795
:10C8E00073FABDF8060000F029FCADF8080001A8B5
:10C8F00002F01AF8CAE7794E28463178FFF748FA6D
:10C900000028C2D0002231782846FFF75DFAE2887D
:10C91000B2F5857F1ED0002A40F0A4806289012AEA
:10C9200009D06F486F4B7049C01AC008000440F02E
:10C930000200FAF7D5FEA389012B00F0B480694A02
:10C9400067486A49801AC00800041A4640F002008D
:10C95000FAF7C6FE664B002401201978ADF80400F2
:10C96000092328462246CDF80640ADF80A408DF846
:10C970000630FFF729FA5F4B2846029300F0DEFBF2
:10C98000002201A900F0BEFF00283FF47EAFFDF7B2
:10C990003BFD544A524B58494B4C9B1ADB081B0435
:10C9A000024643F00200FAF79BFE6FE7534E28461B
:10C9B0003178FFF7EDF900283FF467AF00223178B6
:10C9C0002846FFF701FAE28832BBE689012E54D0EF
:10C9D0004348444B4549C01AC0080004324640F061
:10C9E0000200FAF77DFE42490023CDF806301A46D0
:10C9F000ADF80A302846092309788DF8063001245D
:10CA0000ADF80440FFF7E0F93A4B2846B5E7284671
:10CA1000FFF71AFC2C4C39E7324B31483849C01A21
:10CA2000C008000440F00200FAF75AFEDBE7018973
:10CA300042F6021399427FF428AF324C28462178FF
:10CA4000FFF7C2F9002220782F49FFF7DFF90246ED
:10CA500000287FF41AAF264B2C4918781A4CFFF7A0
:10CA6000D5F913E71F4B1E482549C01AC00800041A
:10CA700040F00200FAF734FE6CE71D4BCDF80620BB
:10CA80001978247CADF80A20092328468DF8063051
:10CA9000ADF80460FFF798F91D4B164A2846002CA4
:10CAA00008BF134669E7E18900222846FFF71AFB11
:10CAB00000287FF44FAF114A034C117828461A46DC
:10CAC000FFF782F9E2E600BFA52B0020A32B002090
:10CAD000C5C4020045C30200A62B0020A02B0020E5
